:030000000208F5FE
:0C08F500787FE4F6D8FD75816A02093CAA
:100BD100313233263435362537383928301B0D2745
:100BE1003F065B4F666D7D077F6F777C395E79715C
:080BF1007638373E735C4000CA
:10034800C101016A00014500016900014400C107BB
:10035800C100C105C106C109C10CC102C10AC10B56
:100368000151000153001056010101010101010171
:100378000101010101010101A0405000000000003D
:100388000000000000000000000000000000000065
:100398000000000000000000000000000000000055
:1003A8000000000000000000000000000000000045
:1003B80000000000000000000000000848000000E5
:1003C8000000000000C108C1840246000002670066
:1003D80000016600C103025400000122001023FF3F
:1003E800FFFFFFFFFFFFFFFFFFFFFFFFFFFFFF9084
:1003F80000010101010101010101010101010101E6
:1004080001A04010000003E8000003E8000003E832
:10041800000003E8000003E8000003E8000003E828
:10042800000003E8000003E8000003E8000003E818
:10043800000003E8000003E8000003E8000003E808
:10044800000003E8023400000136010137000138DA
:090458000002390000023B000023
:10072600D2AF7F017E001209817F0A7E001209FA8C
:10073600E4FFFE120B4D1204623008FA300910C2B3
:1007460009E547154770021546120BA41207D3AEEA
:1007560046AF477C007D6412005DD3EF940FEE94A4
:1007660000400C754401D2003006CBC2068013D37C
:10077600EF9405EE94004016754402D2003005B69B
:10078600C205B2A0B2A1B2A6B2A7D20B80A8D3EF7F
:100796009400EE94004016754403D200300C97C2C4
:1007A6000CB2A0B2A1B2A6B2A7D20A8089E547458B
:1007B600467083754404C201C208F567F568F5669C
:0D07C6001207D3D200D207E4F5A002073CD1
:10098100750BC4750A67750901750800E4FCFDABB8
:100991000BAA0AA909A8081200B2E47BE87A03F9B4
:1009A100F812013D8F0B8E0A8D098C08C3E4950B5B
:1009B100F50BE4950AF50A74019509F509E4950822
:1009C100F508E50B240CF50BE4350AF50AE43509C5
:1009D100F509E43508F508AF0BAE0AAD09FC780856
:1009E1001201E08F51850B5353890F4389108551B3
:0809F1008D85538BD2ABD28E31
:0109F90022DB
:1009FA00750BC4750A67750901750800E4FCFDAB3F
:100A0A000BAA0AA909A8081200B2E47BE87A03F93A
:100A1A00F812013D8F0B8E0A8D098C08C3E4950BE1
:100A2A00F50BE4950AF50A74019509F509E49508A8
:100A3A00F508E50B2412F50BE4350AF50AE4350945
:100A4A00F509E43508F508AF0BAE0AAD09FC7808DC
:100A5A001201E08F50850B525389F043890185506A
:080A6A008C85528AD2A9D28CBE
:010A72002261
:10021800E52225E025E02423F8E625E0FFA293E483
:10022800334FFFE52225E025E02423F8A607E52241
:1002380025E025E02424F8E625E0FFA292E4334FE8
:10024800FFE52225E025E02424F8A607E52225E09D
:1002580025E02425F8E625E0FFA291E4334FFFE5E9
:100268002225E025E02425F8A607E52225E025E05B
:100278002426F8E625E0FFA290E4334FFFE5222587
:10028800E025E02426F8A607E4F517E52225E02571
:10029800E024232517F8E6540F703CE52225E025D5
:1002A800E024562517F8E4F6E522C454F02450F863
:1002B800E51725E025E028F8C000E2FC08E2FD0883
:1002C800E2FE08E22428FFE43EFEE43DFDE43CFCB7
:1002D800D0001201F38036E52225E025E02423250D
:1002E80017F8E6540FFFBF0F24E52225E025E02488
:1002F800562517F87601E522C454F02450F8E5177E
:1003080025E025E028F81201FF000000000517E5A8
:1003180017640460030202930522532203E52214A2
:10032800600F14601114601324037013D294C297E1
:0F03380022D297C29622D296C29522D295C29413
:010347002293
:10046200E4F508E4F509E50825E025E02456250928
:10047200F8E6FFE50825E025E024002509F8E2FE7C
:100482006F6024EE600712056FD200D202E50825E4
:10049200E025E024562509F8E6FFE50825E025E0F9
:1004A20024002509F8EFF2E508C454F02450F8E5D9
:1004B2000925E025E028F8E2FC08E2FD08E2FE0852
:1004C200E2FFE4FBFAF9F8C31201CF5070E508C469
:1004D20054F02410F8E50925E025E028F8E2FC08AC
:1004E200E2FD08E2FE08E2FFE508C454F02450F8F9
:1004F200E50925E025E028F8E2FB08E2F908E2FA3E
:1005020008E2CBF8C31201CF404A12056FE508C4D6
:1005120054F02410F8E50925E025E028F8C000E2AF
:10052200FC08E2FD08E2FE08E224F4FFEE3401FEDC
:10053200E43DFDE43CFCD0001201F38017E508C461
:1005420054F02410F8E50925E025E028F81201FF0F
:10055200000003E80509E509C39404500302046896
:0C0562000508E508C3940450030204657A
:01056E00226A
:10056F00E50825E025E024D1F582E4340BF583E599
:0D057F00822509F582E43583F583E493FFBE
:02058C008F0AD4
:10058E007430D3950A502FE50A94395029E5456009
:10059E0003020675E50A24D0F56A743D2569F8A6AE
:1005AE006A7B007A00793D120A730569E56975F078
:1005BE00078485F06922E50AB42628E545640160C2
:1005CE0003020675D204C3E555940FE554942740F3
:1005DE00030206750555E55570020554855467F5F9
:1005EE00688026E50AB42824E54564017079D204B2
:1005FE00D3E5559401E5549400406CE555155570BE
:10060E000215548554678555680207D3E50AB40D63
:10061E002805451207D3E5456402704BE54575F094
:10062E00038485F045AE54AF557C007D6412004BBB
:10063E008E468F47D208D20322E50A641B7028F536
:10064E0045F544FFE4F5440FBF07F9C200E4F56930
:10065E00C203F554F555F567F568F566C204C20890
:07066E00AF55AE54120B4D15
:010675002262
:040B4D008E0B8F0C70
:100B5100E4FBAE0BAF0C7C007D0A12005D740D2B23
:100B6100F8A605AE0BAF0C7C007D0A12005D8E0B62
:100B71008F0C0BBB08DC7B07740D2BF8E670087437
:100B8100482BF8E4F6DBF1C3EB64809480401374E6
:100B91000D2BF8E6900BE193FF74482BF8A6071B89
:020BA10080E5ED
:010BA300222F
:060A73008B0B8A0C890DBB
:100A7900E4F516AB0BAA0CA90DAF16EF3395E08F71
:100A890082F58312001EFF740E2516F8A6070516B7
:100A9900E516B408DE856916C3E5166480948040BE
:100AA90018E5699516240EF8E6900BE193FF744852
:100AB9002516F8A607151680DF751607AD16ED334E
:100AC90095E0FCD3ED95697480F86C98400B7448F7
:090AD9002516F8E4F6151680E379
:010AE20022F1
:10086800E4F580E533B4080040030208F490087CFE
:10087800F82828730208940208A00208AC0208B8F5
:100888000208C40208D00208DC0208E8C2A4C2A315
:10089800C2A2053385488022C2A4C2A3D2A20533CE
:1008A80085498022C2A4D2A3C2A20533854A8022E8
:1008B800C2A4D2A3D2A20533854B8022D2A4C2A35C
:1008C800C2A20533854C8022D2A4C2A3D2A205338A
:1008D800854D8022D2A4D2A3C2A20533854E8022A0
:0C08E800D2A4D2A3D2A2E4F533854F8045
:0108F40022E1
:1007D300E56675F00A84E5F0900BE193F548E5666C
:1007E30075F00A8493F549AE67AF687C007D0A1201
:1007F300005D8D0BAE67AF687C007D0A12005D7CE7
:10080300007D0A12005D8D0CAE67AF687C007D64CD
:1008130012005D7C007D0A12005D8D0DAE67AF682E
:100823007C037DE812005D7C007D0A12005D8D0E65
:10083300E4F54FF54E7F03740B2FF8E67008744A06
:100843002FF8E4F6DFF1C3EF648094804013740B58
:100853002FF8E6900BE193FE744A2FF8A6061F804B
:04086300E5434A809F
:01086700226E
:100BA400300829D3E5479400E5469400401EAE463C
:100BB400AF477C007D6412005D8D66AE46AF477C16
:0D0BC400007D6412005D8E678F68D20422F0
:03000B0002067674
:10067600C0E0C0F0C083C082C0D075D000C000C04A
:0706860004C005C006C00717
:10068D0085508C85528AD2091208681202183002E0
:10069D00100537E537C394194007753700C202C2FC
:1006AD0000E544B4011C2006190535E53570020539
:1006BD0034C394E8E534940340087534007535006F
:1006CD00D206E544B4021C2005190535E535700246
:1006DD000534C394F4E53494014008753400753540
:1006ED0000D205E544B4031C200C190535E5357021
:1006FD00020534C394C8E534940040087534007580
:04070D003500D20CD5
:10071100D007D006D005D004D000D0D0D082D0836D
:05072100D0F0D0E03231
:03001B00020AE3F3
:040AE300C0E0C0D0DF
:100AE70085518D85538B300056300204B2A5805155
:100AF700300B1F053CE53C7002053BC39420E53BEA
:100B07009403400AC200753B00753C00C20BB2A5B6
:100B1700802F300A1F053AE53A70020539C394F46D
:100B2700E5399401400AC200753900753A00C20AD6
:100B3700B2A5800D300704B2A58006C2008002D29C
:010B4700A508
:050B4800D0D0D0E03226
:10090100020726E493A3F8E493A34003F68001F2DF
:1009110008DFF48029E493A3F85407240CC8C333F7
:10092100C4540F4420C8834004F456800146F6DFC6
:10093100E4800B0102040810204080900348E47E0B
:10094100019360BCA3FF543F30E509541FFEE493BB
:10095100A360010ECF54C025E060A840B8E493A382
:10096100FAE493A3F8E493A3C8C582C8CAC583CAAD
:10097100F0A3C8C582C8CAC583CADFE9DEE780BE65
:01046100009A
:10001E00BB010CE58229F582E5833AF583E0225097
:10002E0006E92582F8E622BBFE06E92582F8E222E1
:0D003E00E58229F582E5833AF583E49322FB
:10004B00EF8DF0A4A8F0CF8CF0A428CE8DF0A42EC9
:02005B00FE2283
:10005D00BC000BBE0029EF8DF084FFADF022E4CC87
:10006D00F875F008EF2FFFEE33FEEC33FCEE9DEC50
:10007D00984005FCEE9DFE0FD5F0E9E4CEFD22ED96
:10008D00F8F5F0EE8420D21CFEADF075F008EF2FE0
:10009D00FFED33FD4007985006D5F0F222C398FDD1
:0500AD000FD5F0EA226E
:1000B200E88FF0A4CC8BF0A42CFCE98EF0A42CFCED
:1000C2008AF0EDA42CFCEA8EF0A4CDA8F08BF0A46B
:1000D2002DCC3825F0FDE98FF0A42CCD35F0FCEBCA
:1000E2008EF0A4FEA9F0EB8FF0A4CFC5F02ECD398F
:0F00F200FEE43CFCEAA42DCE35F0FDE43CFC22FC
:1001010075F008758200EF2FFFEE33FECD33CDCCB5
:1001110033CCC58233C5829BED9AEC99E582984038
:100121000CF582EE9BFEED9AFDEC99FC0FD5F0D615
:10013100E4CEFBE4CDFAE4CCF9A88222B800C1B93F
:100141000059BA002DEC8BF084CFCECDFCE5F0CB7D
:10015100F97818EF2FFFEE33FEED33FDEC33FCEBB6
:1001610033FB10D703994004EB99FB0FD8E5E4F971
:10017100FA227818EF2FFFEE33FEED33FDEC33FC5E
:10018100C933C910D7059BE99A4007EC9BFCE99A52
:10019100F90FD8E0E4C9FAE4CCFB2275F010EF2F97
:1001A100FFEE33FEED33FDCC33CCC833C810D70797
:1001B1009BEC9AE899400AED9BFDEC9AFCE899F8D2
:0E01C1000FD5F0DAE4CDFBE4CCFAE4C8F92265
:1001CF00EB9FF5F0EA9E42F0E99D42F0E89C45F086
:0101DF0022FD
:1001E000E8600FECC313FCED13FDEE13FEEF13FFFD
:0301F000D8F12221
:0C01F300ECF208EDF208EEF208EFF22248
:1001FF00D083D082E493F208740193F208740293CF
:09020F00F208740393F274047305
:00000001FF
